:100000000A0C250040000500060C7F0C0600050CBC
:100010000200800C120A86030F0D8607F70E3000CF
:10002000700242092C000C0C2400E6050400D80CD8
:100030003A09E60404006C0C3A09010CEC07090CBF
:100040003600080C35000400E605090C3A09E60400
:10005000150CE006360C3A096003F5004307230A45
:10006000A402F6004307210AE605090C3A09E60452
:1000700004000B0A3700040C3800F8023D0AF702AE
:100080003B0A0008110C2400A606480A0400440A92
:100090006100A6074D0A0400490A010261002F0011
:1000A0006D0C8F0003070108AB0C8F0003060208DC
:1000B000A6065C0A0400580A010261002F003E0CEB
:1000C0008F0003070308570C8F0003060408040C75
:1000D0002E00080C2D0004006003A607710A04001E
:1000E0006D0AA606750A0400710A010261002F005C
:1000F0000E0C8F00030705082B0C8F000306060863
:100100001B0C8F000306860A0004870A0005ED0019
:1001100043076B0AA402EE004307690A0400110CAE
:1001200024004002A402800143070708A402400201
:10013000A40280014307080811029001430709083F
:100140009303070EE201A70AAB0AAF0AB30A0C0C2D
:100150004501010DB70A030C4501040DB70A0C0C4B
:100160004501020DB70A030C4501080DB70A250029
:02017000810804
:00000001FF
