:10000000030185006500FF30660085306200003026
:100010008B0080308C000C098D0006090339031910
:100020000D288E008E038E0E0E098F000C3084007A
:100030000514F4303F20051082303F200430920038
:1000400008309100051409303F200510801B2A2834
:1000500015302B2836303F20800D9103031D2228B8
:10006000840A9203031D2028051409303F2005103F
:1000700064309600F4303F20960B3A28092894000B
:0E0080000B309500950B4228940B4028080089
:00000001FF
