:100000002500400026001F0C0600850C0200060C8F
:100010003500F40C3F09F502090A800C2C004C0253
:100020002D000607170A2606110A030C180A000CF1
:100030002E00AE034E022F000C0C2400A605F40C7B
:100040003F09A604820C3F09040C3200080C310061
:10005000A605090C3F09A604E006300A150C310A72
:10006000360C3F096003F1004307280AA402F2009E
:100070004307260AA605090C3F09A604070A330010
:0E0080000B0C3400F402420AF302400A00089E
:00000001FF
